{
  "contractName": "MyNft",
  "abi": [
    {
      "inputs": [],
      "stateMutability": "payable",
      "type": "constructor",
      "payable": true
    },
    {
      "anonymous": false,
      "inputs": [
        {
          "indexed": true,
          "internalType": "address",
          "name": "owner",
          "type": "address"
        },
        {
          "indexed": true,
          "internalType": "address",
          "name": "approved",
          "type": "address"
        },
        {
          "indexed": true,
          "internalType": "uint256",
          "name": "tokenId",
          "type": "uint256"
        }
      ],
      "name": "Approval",
      "type": "event"
    },
    {
      "anonymous": false,
      "inputs": [
        {
          "indexed": true,
          "internalType": "address",
          "name": "owner",
          "type": "address"
        },
        {
          "indexed": true,
          "internalType": "address",
          "name": "operator",
          "type": "address"
        },
        {
          "indexed": false,
          "internalType": "bool",
          "name": "approved",
          "type": "bool"
        }
      ],
      "name": "ApprovalForAll",
      "type": "event"
    },
    {
      "anonymous": false,
      "inputs": [
        {
          "indexed": true,
          "internalType": "address",
          "name": "from",
          "type": "address"
        },
        {
          "indexed": true,
          "internalType": "address",
          "name": "to",
          "type": "address"
        },
        {
          "indexed": true,
          "internalType": "uint256",
          "name": "tokenId",
          "type": "uint256"
        }
      ],
      "name": "Transfer",
      "type": "event"
    },
    {
      "inputs": [
        {
          "internalType": "address",
          "name": "to",
          "type": "address"
        },
        {
          "internalType": "uint256",
          "name": "tokenId",
          "type": "uint256"
        }
      ],
      "name": "approve",
      "outputs": [],
      "stateMutability": "nonpayable",
      "type": "function"
    },
    {
      "inputs": [
        {
          "internalType": "address",
          "name": "owner",
          "type": "address"
        }
      ],
      "name": "balanceOf",
      "outputs": [
        {
          "internalType": "uint256",
          "name": "",
          "type": "uint256"
        }
      ],
      "stateMutability": "view",
      "type": "function",
      "constant": true
    },
    {
      "inputs": [
        {
          "internalType": "uint256",
          "name": "tokenId",
          "type": "uint256"
        }
      ],
      "name": "getApproved",
      "outputs": [
        {
          "internalType": "address",
          "name": "",
          "type": "address"
        }
      ],
      "stateMutability": "view",
      "type": "function",
      "constant": true
    },
    {
      "inputs": [
        {
          "internalType": "address",
          "name": "owner",
          "type": "address"
        },
        {
          "internalType": "address",
          "name": "operator",
          "type": "address"
        }
      ],
      "name": "isApprovedForAll",
      "outputs": [
        {
          "internalType": "bool",
          "name": "",
          "type": "bool"
        }
      ],
      "stateMutability": "view",
      "type": "function",
      "constant": true
    },
    {
      "inputs": [],
      "name": "name",
      "outputs": [
        {
          "internalType": "string",
          "name": "",
          "type": "string"
        }
      ],
      "stateMutability": "view",
      "type": "function",
      "constant": true
    },
    {
      "inputs": [
        {
          "internalType": "uint256",
          "name": "tokenId",
          "type": "uint256"
        }
      ],
      "name": "ownerOf",
      "outputs": [
        {
          "internalType": "address",
          "name": "",
          "type": "address"
        }
      ],
      "stateMutability": "view",
      "type": "function",
      "constant": true
    },
    {
      "inputs": [
        {
          "internalType": "address",
          "name": "from",
          "type": "address"
        },
        {
          "internalType": "address",
          "name": "to",
          "type": "address"
        },
        {
          "internalType": "uint256",
          "name": "tokenId",
          "type": "uint256"
        }
      ],
      "name": "safeTransferFrom",
      "outputs": [],
      "stateMutability": "nonpayable",
      "type": "function"
    },
    {
      "inputs": [
        {
          "internalType": "address",
          "name": "from",
          "type": "address"
        },
        {
          "internalType": "address",
          "name": "to",
          "type": "address"
        },
        {
          "internalType": "uint256",
          "name": "tokenId",
          "type": "uint256"
        },
        {
          "internalType": "bytes",
          "name": "data",
          "type": "bytes"
        }
      ],
      "name": "safeTransferFrom",
      "outputs": [],
      "stateMutability": "nonpayable",
      "type": "function"
    },
    {
      "inputs": [
        {
          "internalType": "address",
          "name": "operator",
          "type": "address"
        },
        {
          "internalType": "bool",
          "name": "approved",
          "type": "bool"
        }
      ],
      "name": "setApprovalForAll",
      "outputs": [],
      "stateMutability": "nonpayable",
      "type": "function"
    },
    {
      "inputs": [
        {
          "internalType": "bytes4",
          "name": "interfaceId",
          "type": "bytes4"
        }
      ],
      "name": "supportsInterface",
      "outputs": [
        {
          "internalType": "bool",
          "name": "",
          "type": "bool"
        }
      ],
      "stateMutability": "view",
      "type": "function",
      "constant": true
    },
    {
      "inputs": [],
      "name": "symbol",
      "outputs": [
        {
          "internalType": "string",
          "name": "",
          "type": "string"
        }
      ],
      "stateMutability": "view",
      "type": "function",
      "constant": true
    },
    {
      "inputs": [
        {
          "internalType": "uint256",
          "name": "tokenId",
          "type": "uint256"
        }
      ],
      "name": "tokenURI",
      "outputs": [
        {
          "internalType": "string",
          "name": "",
          "type": "string"
        }
      ],
      "stateMutability": "view",
      "type": "function",
      "constant": true
    },
    {
      "inputs": [
        {
          "internalType": "address",
          "name": "from",
          "type": "address"
        },
        {
          "internalType": "address",
          "name": "to",
          "type": "address"
        },
        {
          "internalType": "uint256",
          "name": "tokenId",
          "type": "uint256"
        }
      ],
      "name": "transferFrom",
      "outputs": [],
      "stateMutability": "nonpayable",
      "type": "function"
    },
    {
      "inputs": [
        {
          "internalType": "string",
          "name": "uri",
          "type": "string"
        },
        {
          "internalType": "address",
          "name": "user",
          "type": "address"
        }
      ],
      "name": "createToken",
      "outputs": [
        {
          "internalType": "uint256",
          "name": "",
          "type": "uint256"
        }
      ],
      "stateMutability": "payable",
      "type": "function",
      "payable": true
    },
    {
      "inputs": [
        {
          "internalType": "address",
          "name": "owner",
          "type": "address"
        }
      ],
      "name": "getTokenIdsByOwner",
      "outputs": [
        {
          "internalType": "uint256[]",
          "name": "",
          "type": "uint256[]"
        }
      ],
      "stateMutability": "view",
      "type": "function",
      "constant": true
    },
    {
      "inputs": [
        {
          "internalType": "address",
          "name": "to",
          "type": "address"
        },
        {
          "internalType": "address",
          "name": "from",
          "type": "address"
        },
        {
          "internalType": "uint256",
          "name": "tokenId",
          "type": "uint256"
        }
      ],
      "name": "trasferToken",
      "outputs": [],
      "stateMutability": "nonpayable",
      "type": "function"
    }
  ],
  "bytecode": "0x60806040526000600860006101000a81548160ff0219169083151502179055506040518060400160405280600881526020017f43616e64794e66740000000000000000000000000000000000000000000000008152506040518060400160405280600381526020017f434e54000000000000000000000000000000000000000000000000000000000081525081600090816200009c919062000331565b508060019081620000ae919062000331565b50505062000418565b600081519050919050565b7f4e487b7100000000000000000000000000000000000000000000000000000000600052604160045260246000fd5b7f4e487b7100000000000000000000000000000000000000000000000000000000600052602260045260246000fd5b600060028204905060018216806200013957607f821691505b6020821081036200014f576200014e620000f1565b5b50919050565b60008190508160005260206000209050919050565b60006020601f8301049050919050565b600082821b905092915050565b600060088302620001b97fffffffffffffffffffffffffffffffffffffffffffffffffffffffffffffffff826200017a565b620001c586836200017a565b95508019841693508086168417925050509392505050565b6000819050919050565b6000819050919050565b6000620002126200020c6200020684620001dd565b620001e7565b620001dd565b9050919050565b6000819050919050565b6200022e83620001f1565b620002466200023d8262000219565b84845462000187565b825550505050565b600090565b6200025d6200024e565b6200026a81848462000223565b505050565b5b8181101562000292576200028660008262000253565b60018101905062000270565b5050565b601f821115620002e157620002ab8162000155565b620002b6846200016a565b81016020851015620002c6578190505b620002de620002d5856200016a565b8301826200026f565b50505b505050565b600082821c905092915050565b60006200030660001984600802620002e6565b1980831691505092915050565b6000620003218383620002f3565b9150826002028217905092915050565b6200033c82620000b7565b67ffffffffffffffff811115620003585762000357620000c2565b5b62000364825462000120565b6200037182828562000296565b600060209050601f831160018114620003a9576000841562000394578287015190505b620003a0858262000313565b86555062000410565b601f198416620003b98662000155565b60005b82811015620003e357848901518255600182019150602085019450602081019050620003bc565b86831015620004035784890151620003ff601f891682620002f3565b8355505b6001600288020188555050505b505050505050565b61334280620004286000396000f3fe6080604052600436106100f35760003560e01c806370a082311161008a578063b88d4fde11610059578063b88d4fde14610353578063c87b56dd1461037c578063e5dfb991146103b9578063e985e9c5146103e2576100f3565b806370a082311461029257806395d89b41146102cf578063a2119377146102fa578063a22cb4651461032a576100f3565b806323b872dd116100c657806323b872dd146101c657806342842e0e146101ef5780636352211e146102185780636970bb0a14610255576100f3565b806301ffc9a7146100f857806306fdde0314610135578063081812fc14610160578063095ea7b31461019d575b600080fd5b34801561010457600080fd5b5061011f600480360381019061011a9190611ed0565b61041f565b60405161012c9190611f18565b60405180910390f35b34801561014157600080fd5b5061014a610501565b6040516101579190611fc3565b60405180910390f35b34801561016c57600080fd5b506101876004803603810190610182919061201b565b610593565b6040516101949190612089565b60405180910390f35b3480156101a957600080fd5b506101c460048036038101906101bf91906120d0565b6105d9565b005b3480156101d257600080fd5b506101ed60048036038101906101e89190612110565b6106f0565b005b3480156101fb57600080fd5b5061021660048036038101906102119190612110565b610750565b005b34801561022457600080fd5b5061023f600480360381019061023a919061201b565b610770565b60405161024c9190612089565b60405180910390f35b34801561026157600080fd5b5061027c60048036038101906102779190612163565b6107f6565b604051610289919061224e565b60405180910390f35b34801561029e57600080fd5b506102b960048036038101906102b49190612163565b6108f7565b6040516102c6919061227f565b60405180910390f35b3480156102db57600080fd5b506102e46109ae565b6040516102f19190611fc3565b60405180910390f35b610314600480360381019061030f91906123cf565b610a40565b604051610321919061227f565b60405180910390f35b34801561033657600080fd5b50610351600480360381019061034c9190612457565b610b66565b005b34801561035f57600080fd5b5061037a60048036038101906103759190612538565b610b7c565b005b34801561038857600080fd5b506103a3600480360381019061039e919061201b565b610bde565b6040516103b09190611fc3565b60405180910390f35b3480156103c557600080fd5b506103e060048036038101906103db9190612110565b610cf0565b005b3480156103ee57600080fd5b50610409600480360381019061040491906125bb565b610e35565b6040516104169190611f18565b60405180910390f35b60007f80ac58cd000000000000000000000000000000000000000000000000000000007bffffffffffffffffffffffffffffffffffffffffffffffffffffffff1916827bffffffffffffffffffffffffffffffffffffffffffffffffffffffff191614806104ea57507f5b5e139f000000000000000000000000000000000000000000000000000000007bffffffffffffffffffffffffffffffffffffffffffffffffffffffff1916827bffffffffffffffffffffffffffffffffffffffffffffffffffffffff1916145b806104fa57506104f982610ec9565b5b9050919050565b6060600080546105109061262a565b80601f016020809104026020016040519081016040528092919081815260200182805461053c9061262a565b80156105895780601f1061055e57610100808354040283529160200191610589565b820191906000526020600020905b81548152906001019060200180831161056c57829003601f168201915b5050505050905090565b600061059e82610f33565b6004600083815260200190815260200160002060009054906101000a900473ffffffffffffffffffffffffffffffffffffffff169050919050565b60006105e482610770565b90508073ffffffffffffffffffffffffffffffffffffffff168373ffffffffffffffffffffffffffffffffffffffff1603610654576040517f08c379a000000000000000000000000000000000000000000000000000000000815260040161064b906126cd565b60405180910390fd5b8073ffffffffffffffffffffffffffffffffffffffff16610673610f7e565b73ffffffffffffffffffffffffffffffffffffffff1614806106a257506106a18161069c610f7e565b610e35565b5b6106e1576040517f08c379a00000000000000000000000000000000000000000000000000000000081526004016106d89061275f565b60405180910390fd5b6106eb8383610f86565b505050565b6107016106fb610f7e565b8261103f565b610740576040517f08c379a0000000000000000000000000000000000000000000000000000000008152600401610737906127f1565b60405180910390fd5b61074b8383836110d4565b505050565b61076b83838360405180602001604052806000815250610b7c565b505050565b60008061077c836113cd565b9050600073ffffffffffffffffffffffffffffffffffffffff168173ffffffffffffffffffffffffffffffffffffffff16036107ed576040517f08c379a00000000000000000000000000000000000000000000000000000000081526004016107e49061285d565b60405180910390fd5b80915050919050565b606060006108038361140a565b9050600061080f611421565b905060008267ffffffffffffffff81111561082d5761082c6122a4565b5b60405190808252806020026020018201604052801561085b5781602001602082028036833780820191505090505b509050600080600190505b8381116108ea578673ffffffffffffffffffffffffffffffffffffffff1661088d82610770565b73ffffffffffffffffffffffffffffffffffffffff16036108d757808383815181106108bc576108bb61287d565b5b60200260200101818152505081806108d3906128db565b9250505b80806108e2906128db565b915050610866565b5081945050505050919050565b60008073ffffffffffffffffffffffffffffffffffffffff168273ffffffffffffffffffffffffffffffffffffffff1603610967576040517f08c379a000000000000000000000000000000000000000000000000000000000815260040161095e90612995565b60405180910390fd5b600360008373ffffffffffffffffffffffffffffffffffffffff1673ffffffffffffffffffffffffffffffffffffffff168152602001908152602001600020549050919050565b6060600180546109bd9061262a565b80601f01602080910402602001604051908101604052809291908181526020018280546109e99061262a565b8015610a365780601f10610a0b57610100808354040283529160200191610a36565b820191906000526020600020905b815481529060010190602001808311610a1957829003601f168201915b5050505050905090565b60003373ffffffffffffffffffffffffffffffffffffffff168273ffffffffffffffffffffffffffffffffffffffff1614610a7e57610a7d6129b5565b5b60003411610ac1576040517f08c379a0000000000000000000000000000000000000000000000000000000008152600401610ab890612a30565b60405180910390fd5b600073ffffffffffffffffffffffffffffffffffffffff168273ffffffffffffffffffffffffffffffffffffffff1603610b30576040517f08c379a0000000000000000000000000000000000000000000000000000000008152600401610b2790612a9c565b60405180910390fd5b610b3a6007611437565b6000610b46600761144d565b9050610b52838261145b565b610b5c8185611678565b8091505092915050565b610b78610b71610f7e565b83836116e5565b5050565b610b8d610b87610f7e565b8361103f565b610bcc576040517f08c379a0000000000000000000000000000000000000000000000000000000008152600401610bc3906127f1565b60405180910390fd5b610bd884848484611851565b50505050565b6060610be982610f33565b6000600660008481526020019081526020016000208054610c099061262a565b80601f0160208091040260200160405190810160405280929190818152602001828054610c359061262a565b8015610c825780601f10610c5757610100808354040283529160200191610c82565b820191906000526020600020905b815481529060010190602001808311610c6557829003601f168201915b505050505090506000610c936118ad565b90506000815103610ca8578192505050610ceb565b600082511115610cdd578082604051602001610cc5929190612af8565b60405160208183030381529060405292505050610ceb565b610ce6846118c4565b925050505b919050565b600860009054906101000a900460ff1615610d0a57600080fd5b8173ffffffffffffffffffffffffffffffffffffffff16610d2a82610770565b73ffffffffffffffffffffffffffffffffffffffff1614610d80576040517f08c379a0000000000000000000000000000000000000000000000000000000008152600401610d7790612b68565b60405180910390fd5b600073ffffffffffffffffffffffffffffffffffffffff168373ffffffffffffffffffffffffffffffffffffffff1603610def576040517f08c379a0000000000000000000000000000000000000000000000000000000008152600401610de690612a9c565b60405180910390fd5b6001600860006101000a81548160ff021916908315150217905550610e158284836110d4565b6000600860006101000a81548160ff021916908315150217905550505050565b6000600560008473ffffffffffffffffffffffffffffffffffffffff1673ffffffffffffffffffffffffffffffffffffffff16815260200190815260200160002060008373ffffffffffffffffffffffffffffffffffffffff1673ffffffffffffffffffffffffffffffffffffffff16815260200190815260200160002060009054906101000a900460ff16905092915050565b60007f01ffc9a7000000000000000000000000000000000000000000000000000000007bffffffffffffffffffffffffffffffffffffffffffffffffffffffff1916827bffffffffffffffffffffffffffffffffffffffffffffffffffffffff1916149050919050565b610f3c8161192c565b610f7b576040517f08c379a0000000000000000000000000000000000000000000000000000000008152600401610f729061285d565b60405180910390fd5b50565b600033905090565b816004600083815260200190815260200160002060006101000a81548173ffffffffffffffffffffffffffffffffffffffff021916908373ffffffffffffffffffffffffffffffffffffffff160217905550808273ffffffffffffffffffffffffffffffffffffffff16610ff983610770565b73ffffffffffffffffffffffffffffffffffffffff167f8c5be1e5ebec7d5bd14f71427d1e84f3dd0314c0f7b2291e5b200ac8c7c3b92560405160405180910390a45050565b60008061104b83610770565b90508073ffffffffffffffffffffffffffffffffffffffff168473ffffffffffffffffffffffffffffffffffffffff16148061108d575061108c8185610e35565b5b806110cb57508373ffffffffffffffffffffffffffffffffffffffff166110b384610593565b73ffffffffffffffffffffffffffffffffffffffff16145b91505092915050565b8273ffffffffffffffffffffffffffffffffffffffff166110f482610770565b73ffffffffffffffffffffffffffffffffffffffff161461114a576040517f08c379a000000000000000000000000000000000000000000000000000000000815260040161114190612bfa565b60405180910390fd5b600073ffffffffffffffffffffffffffffffffffffffff168273ffffffffffffffffffffffffffffffffffffffff16036111b9576040517f08c379a00000000000000000000000000000000000000000000000000000000081526004016111b090612c8c565b60405180910390fd5b6111c6838383600161196d565b8273ffffffffffffffffffffffffffffffffffffffff166111e682610770565b73ffffffffffffffffffffffffffffffffffffffff161461123c576040517f08c379a000000000000000000000000000000000000000000000000000000000815260040161123390612bfa565b60405180910390fd5b6004600082815260200190815260200160002060006101000a81549073ffffffffffffffffffffffffffffffffffffffff02191690556001600360008573ffffffffffffffffffffffffffffffffffffffff1673ffffffffffffffffffffffffffffffffffffffff168152602001908152602001600020600082825403925050819055506001600360008473ffffffffffffffffffffffffffffffffffffffff1673ffffffffffffffffffffffffffffffffffffffff16815260200190815260200160002060008282540192505081905550816002600083815260200190815260200160002060006101000a81548173ffffffffffffffffffffffffffffffffffffffff021916908373ffffffffffffffffffffffffffffffffffffffff160217905550808273ffffffffffffffffffffffffffffffffffffffff168473ffffffffffffffffffffffffffffffffffffffff167fddf252ad1be2c89b69c2b068fc378daa952ba7f163c4a11628f55a4df523b3ef60405160405180910390a46113c88383836001611a93565b505050565b60006002600083815260200190815260200160002060009054906101000a900473ffffffffffffffffffffffffffffffffffffffff169050919050565b600080611416836108f7565b905080915050919050565b60008061142e600761144d565b90508091505090565b6001816000016000828254019250508190555050565b600081600001549050919050565b600073ffffffffffffffffffffffffffffffffffffffff168273ffffffffffffffffffffffffffffffffffffffff16036114ca576040517f08c379a00000000000000000000000000000000000000000000000000000000081526004016114c190612cf8565b60405180910390fd5b6114d38161192c565b15611513576040517f08c379a000000000000000000000000000000000000000000000000000000000815260040161150a90612d64565b60405180910390fd5b61152160008383600161196d565b61152a8161192c565b1561156a576040517f08c379a000000000000000000000000000000000000000000000000000000000815260040161156190612d64565b60405180910390fd5b6001600360008473ffffffffffffffffffffffffffffffffffffffff1673ffffffffffffffffffffffffffffffffffffffff16815260200190815260200160002060008282540192505081905550816002600083815260200190815260200160002060006101000a81548173ffffffffffffffffffffffffffffffffffffffff021916908373ffffffffffffffffffffffffffffffffffffffff160217905550808273ffffffffffffffffffffffffffffffffffffffff16600073ffffffffffffffffffffffffffffffffffffffff167fddf252ad1be2c89b69c2b068fc378daa952ba7f163c4a11628f55a4df523b3ef60405160405180910390a4611674600083836001611a93565b5050565b6116818261192c565b6116c0576040517f08c379a00000000000000000000000000000000000000000000000000000000081526004016116b790612df6565b60405180910390fd5b806006600084815260200190815260200160002090816116e09190612fc2565b505050565b8173ffffffffffffffffffffffffffffffffffffffff168373ffffffffffffffffffffffffffffffffffffffff1603611753576040517f08c379a000000000000000000000000000000000000000000000000000000000815260040161174a906130e0565b60405180910390fd5b80600560008573ffffffffffffffffffffffffffffffffffffffff1673ffffffffffffffffffffffffffffffffffffffff16815260200190815260200160002060008473ffffffffffffffffffffffffffffffffffffffff1673ffffffffffffffffffffffffffffffffffffffff16815260200190815260200160002060006101000a81548160ff0219169083151502179055508173ffffffffffffffffffffffffffffffffffffffff168373ffffffffffffffffffffffffffffffffffffffff167f17307eab39ab6107e8899845ad3d59bd9653f200f220920489ca2b5937696c31836040516118449190611f18565b60405180910390a3505050565b61185c8484846110d4565b61186884848484611a99565b6118a7576040517f08c379a000000000000000000000000000000000000000000000000000000000815260040161189e90613172565b60405180910390fd5b50505050565b606060405180602001604052806000815250905090565b60606118cf82610f33565b60006118d96118ad565b905060008151116118f95760405180602001604052806000815250611924565b8061190384611c20565b604051602001611914929190612af8565b6040516020818303038152906040525b915050919050565b60008073ffffffffffffffffffffffffffffffffffffffff1661194e836113cd565b73ffffffffffffffffffffffffffffffffffffffff1614159050919050565b6001811115611a8d57600073ffffffffffffffffffffffffffffffffffffffff168473ffffffffffffffffffffffffffffffffffffffff1614611a015780600360008673ffffffffffffffffffffffffffffffffffffffff1673ffffffffffffffffffffffffffffffffffffffff16815260200190815260200160002060008282546119f99190613192565b925050819055505b600073ffffffffffffffffffffffffffffffffffffffff168373ffffffffffffffffffffffffffffffffffffffff1614611a8c5780600360008573ffffffffffffffffffffffffffffffffffffffff1673ffffffffffffffffffffffffffffffffffffffff1681526020019081526020016000206000828254611a8491906131c6565b925050819055505b5b50505050565b50505050565b6000611aba8473ffffffffffffffffffffffffffffffffffffffff16611cee565b15611c13578373ffffffffffffffffffffffffffffffffffffffff1663150b7a02611ae3610f7e565b8786866040518563ffffffff1660e01b8152600401611b05949392919061324f565b6020604051808303816000875af1925050508015611b4157506040513d601f19601f82011682018060405250810190611b3e91906132b0565b60015b611bc3573d8060008114611b71576040519150601f19603f3d011682016040523d82523d6000602084013e611b76565b606091505b506000815103611bbb576040517f08c379a0000000000000000000000000000000000000000000000000000000008152600401611bb290613172565b60405180910390fd5b805181602001fd5b63150b7a0260e01b7bffffffffffffffffffffffffffffffffffffffffffffffffffffffff1916817bffffffffffffffffffffffffffffffffffffffffffffffffffffffff191614915050611c18565b600190505b949350505050565b606060006001611c2f84611d11565b01905060008167ffffffffffffffff811115611c4e57611c4d6122a4565b5b6040519080825280601f01601f191660200182016040528015611c805781602001600182028036833780820191505090505b509050600082602001820190505b600115611ce3578080600190039150507f3031323334353637383961626364656600000000000000000000000000000000600a86061a8153600a8581611cd757611cd66132dd565b5b04945060008503611c8e575b819350505050919050565b6000808273ffffffffffffffffffffffffffffffffffffffff163b119050919050565b600080600090507a184f03e93ff9f4daa797ed6e38ed64bf6a1f0100000000000000008310611d6f577a184f03e93ff9f4daa797ed6e38ed64bf6a1f0100000000000000008381611d6557611d646132dd565b5b0492506040810190505b6d04ee2d6d415b85acef81000000008310611dac576d04ee2d6d415b85acef81000000008381611da257611da16132dd565b5b0492506020810190505b662386f26fc100008310611ddb57662386f26fc100008381611dd157611dd06132dd565b5b0492506010810190505b6305f5e1008310611e04576305f5e1008381611dfa57611df96132dd565b5b0492506008810190505b6127108310611e29576127108381611e1f57611e1e6132dd565b5b0492506004810190505b60648310611e4c5760648381611e4257611e416132dd565b5b0492506002810190505b600a8310611e5b576001810190505b80915050919050565b6000604051905090565b600080fd5b600080fd5b60007fffffffff0000000000000000000000000000000000000000000000000000000082169050919050565b611ead81611e78565b8114611eb857600080fd5b50565b600081359050611eca81611ea4565b92915050565b600060208284031215611ee657611ee5611e6e565b5b6000611ef484828501611ebb565b91505092915050565b60008115159050919050565b611f1281611efd565b82525050565b6000602082019050611f2d6000830184611f09565b92915050565b600081519050919050565b600082825260208201905092915050565b60005b83811015611f6d578082015181840152602081019050611f52565b60008484015250505050565b6000601f19601f8301169050919050565b6000611f9582611f33565b611f9f8185611f3e565b9350611faf818560208601611f4f565b611fb881611f79565b840191505092915050565b60006020820190508181036000830152611fdd8184611f8a565b905092915050565b6000819050919050565b611ff881611fe5565b811461200357600080fd5b50565b60008135905061201581611fef565b92915050565b60006020828403121561203157612030611e6e565b5b600061203f84828501612006565b91505092915050565b600073ffffffffffffffffffffffffffffffffffffffff82169050919050565b600061207382612048565b9050919050565b61208381612068565b82525050565b600060208201905061209e600083018461207a565b92915050565b6120ad81612068565b81146120b857600080fd5b50565b6000813590506120ca816120a4565b92915050565b600080604083850312156120e7576120e6611e6e565b5b60006120f5858286016120bb565b925050602061210685828601612006565b9150509250929050565b60008060006060848603121561212957612128611e6e565b5b6000612137868287016120bb565b9350506020612148868287016120bb565b925050604061215986828701612006565b9150509250925092565b60006020828403121561217957612178611e6e565b5b6000612187848285016120bb565b91505092915050565b600081519050919050565b600082825260208201905092915050565b6000819050602082019050919050565b6121c581611fe5565b82525050565b60006121d783836121bc565b60208301905092915050565b6000602082019050919050565b60006121fb82612190565b612205818561219b565b9350612210836121ac565b8060005b8381101561224157815161222888826121cb565b9750612233836121e3565b925050600181019050612214565b5085935050505092915050565b6000602082019050818103600083015261226881846121f0565b905092915050565b61227981611fe5565b82525050565b60006020820190506122946000830184612270565b92915050565b600080fd5b600080fd5b7f4e487b7100000000000000000000000000000000000000000000000000000000600052604160045260246000fd5b6122dc82611f79565b810181811067ffffffffffffffff821117156122fb576122fa6122a4565b5b80604052505050565b600061230e611e64565b905061231a82826122d3565b919050565b600067ffffffffffffffff82111561233a576123396122a4565b5b61234382611f79565b9050602081019050919050565b82818337600083830152505050565b600061237261236d8461231f565b612304565b90508281526020810184848401111561238e5761238d61229f565b5b612399848285612350565b509392505050565b600082601f8301126123b6576123b561229a565b5b81356123c684826020860161235f565b91505092915050565b600080604083850312156123e6576123e5611e6e565b5b600083013567ffffffffffffffff81111561240457612403611e73565b5b612410858286016123a1565b9250506020612421858286016120bb565b9150509250929050565b61243481611efd565b811461243f57600080fd5b50565b6000813590506124518161242b565b92915050565b6000806040838503121561246e5761246d611e6e565b5b600061247c858286016120bb565b925050602061248d85828601612442565b9150509250929050565b600067ffffffffffffffff8211156124b2576124b16122a4565b5b6124bb82611f79565b9050602081019050919050565b60006124db6124d684612497565b612304565b9050828152602081018484840111156124f7576124f661229f565b5b612502848285612350565b509392505050565b600082601f83011261251f5761251e61229a565b5b813561252f8482602086016124c8565b91505092915050565b6000806000806080858703121561255257612551611e6e565b5b6000612560878288016120bb565b9450506020612571878288016120bb565b935050604061258287828801612006565b925050606085013567ffffffffffffffff8111156125a3576125a2611e73565b5b6125af8782880161250a565b91505092959194509250565b600080604083850312156125d2576125d1611e6e565b5b60006125e0858286016120bb565b92505060206125f1858286016120bb565b9150509250929050565b7f4e487b7100000000000000000000000000000000000000000000000000000000600052602260045260246000fd5b6000600282049050600182168061264257607f821691505b602082108103612655576126546125fb565b5b50919050565b7f4552433732313a20617070726f76616c20746f2063757272656e74206f776e6560008201527f7200000000000000000000000000000000000000000000000000000000000000602082015250565b60006126b7602183611f3e565b91506126c28261265b565b604082019050919050565b600060208201905081810360008301526126e6816126aa565b9050919050565b7f4552433732313a20617070726f76652063616c6c6572206973206e6f7420746f60008201527f6b656e206f776e6572206f7220617070726f76656420666f7220616c6c000000602082015250565b6000612749603d83611f3e565b9150612754826126ed565b604082019050919050565b600060208201905081810360008301526127788161273c565b9050919050565b7f4552433732313a2063616c6c6572206973206e6f7420746f6b656e206f776e6560008201527f72206f7220617070726f76656400000000000000000000000000000000000000602082015250565b60006127db602d83611f3e565b91506127e68261277f565b604082019050919050565b6000602082019050818103600083015261280a816127ce565b9050919050565b7f4552433732313a20696e76616c696420746f6b656e2049440000000000000000600082015250565b6000612847601883611f3e565b915061285282612811565b602082019050919050565b600060208201905081810360008301526128768161283a565b9050919050565b7f4e487b7100000000000000000000000000000000000000000000000000000000600052603260045260246000fd5b7f4e487b7100000000000000000000000000000000000000000000000000000000600052601160045260246000fd5b60006128e682611fe5565b91507fffffffffffffffffffffffffffffffffffffffffffffffffffffffffffffffff8203612918576129176128ac565b5b600182019050919050565b7f4552433732313a2061646472657373207a65726f206973206e6f74206120766160008201527f6c6964206f776e65720000000000000000000000000000000000000000000000602082015250565b600061297f602983611f3e565b915061298a82612923565b604082019050919050565b600060208201905081810360008301526129ae81612972565b9050919050565b7f4e487b7100000000000000000000000000000000000000000000000000000000600052600160045260246000fd5b7f76616c7565206d7573742062652067726561746572207468616e203020000000600082015250565b6000612a1a601d83611f3e565b9150612a25826129e4565b602082019050919050565b60006020820190508181036000830152612a4981612a0d565b9050919050565b7f456d70747920746f206164726573730000000000000000000000000000000000600082015250565b6000612a86600f83611f3e565b9150612a9182612a50565b602082019050919050565b60006020820190508181036000830152612ab581612a79565b9050919050565b600081905092915050565b6000612ad282611f33565b612adc8185612abc565b9350612aec818560208601611f4f565b80840191505092915050565b6000612b048285612ac7565b9150612b108284612ac7565b91508190509392505050565b7f57726f6e672066726f6d20616464726573730000000000000000000000000000600082015250565b6000612b52601283611f3e565b9150612b5d82612b1c565b602082019050919050565b60006020820190508181036000830152612b8181612b45565b9050919050565b7f4552433732313a207472616e736665722066726f6d20696e636f72726563742060008201527f6f776e6572000000000000000000000000000000000000000000000000000000602082015250565b6000612be4602583611f3e565b9150612bef82612b88565b604082019050919050565b60006020820190508181036000830152612c1381612bd7565b9050919050565b7f4552433732313a207472616e7366657220746f20746865207a65726f2061646460008201527f7265737300000000000000000000000000000000000000000000000000000000602082015250565b6000612c76602483611f3e565b9150612c8182612c1a565b604082019050919050565b60006020820190508181036000830152612ca581612c69565b9050919050565b7f4552433732313a206d696e7420746f20746865207a65726f2061646472657373600082015250565b6000612ce2602083611f3e565b9150612ced82612cac565b602082019050919050565b60006020820190508181036000830152612d1181612cd5565b9050919050565b7f4552433732313a20746f6b656e20616c7265616479206d696e74656400000000600082015250565b6000612d4e601c83611f3e565b9150612d5982612d18565b602082019050919050565b60006020820190508181036000830152612d7d81612d41565b9050919050565b7f45524337323155524953746f726167653a2055524920736574206f66206e6f6e60008201527f6578697374656e7420746f6b656e000000000000000000000000000000000000602082015250565b6000612de0602e83611f3e565b9150612deb82612d84565b604082019050919050565b60006020820190508181036000830152612e0f81612dd3565b9050919050565b60008190508160005260206000209050919050565b60006020601f8301049050919050565b600082821b905092915050565b600060088302612e787fffffffffffffffffffffffffffffffffffffffffffffffffffffffffffffffff82612e3b565b612e828683612e3b565b95508019841693508086168417925050509392505050565b6000819050919050565b6000612ebf612eba612eb584611fe5565b612e9a565b611fe5565b9050919050565b6000819050919050565b612ed983612ea4565b612eed612ee582612ec6565b848454612e48565b825550505050565b600090565b612f02612ef5565b612f0d818484612ed0565b505050565b5b81811015612f3157612f26600082612efa565b600181019050612f13565b5050565b601f821115612f7657612f4781612e16565b612f5084612e2b565b81016020851015612f5f578190505b612f73612f6b85612e2b565b830182612f12565b50505b505050565b600082821c905092915050565b6000612f9960001984600802612f7b565b1980831691505092915050565b6000612fb28383612f88565b9150826002028217905092915050565b612fcb82611f33565b67ffffffffffffffff811115612fe457612fe36122a4565b5b612fee825461262a565b612ff9828285612f35565b600060209050601f83116001811461302c576000841561301a578287015190505b6130248582612fa6565b86555061308c565b601f19841661303a86612e16565b60005b828110156130625784890151825560018201915060208501945060208101905061303d565b8683101561307f578489015161307b601f891682612f88565b8355505b6001600288020188555050505b505050505050565b7f4552433732313a20617070726f766520746f2063616c6c657200000000000000600082015250565b60006130ca601983611f3e565b91506130d582613094565b602082019050919050565b600060208201905081810360008301526130f9816130bd565b9050919050565b7f4552433732313a207472616e7366657220746f206e6f6e20455243373231526560008201527f63656976657220696d706c656d656e7465720000000000000000000000000000602082015250565b600061315c603283611f3e565b915061316782613100565b604082019050919050565b6000602082019050818103600083015261318b8161314f565b9050919050565b600061319d82611fe5565b91506131a883611fe5565b92508282039050818111156131c0576131bf6128ac565b5b92915050565b60006131d182611fe5565b91506131dc83611fe5565b92508282019050808211156131f4576131f36128ac565b5b92915050565b600081519050919050565b600082825260208201905092915050565b6000613221826131fa565b61322b8185613205565b935061323b818560208601611f4f565b61324481611f79565b840191505092915050565b6000608082019050613264600083018761207a565b613271602083018661207a565b61327e6040830185612270565b81810360608301526132908184613216565b905095945050505050565b6000815190506132aa81611ea4565b92915050565b6000602082840312156132c6576132c5611e6e565b5b60006132d48482850161329b565b91505092915050565b7f4e487b7100000000000000000000000000000000000000000000000000000000600052601260045260246000fdfea2646970667358221220891053852a43770c248064def251ac80d9db6c84ff72eb3595b8f0aae28c8d0064736f6c63430008110033",
  "immutableReferences": {},
  "source": "pragma solidity ^0.8.17;\n\nimport \"@openzeppelin/contracts/utils/Counters.sol\";\nimport \"@openzeppelin/contracts/token/ERC721/extensions/ERC721URIStorage.sol\";\nimport \"@openzeppelin/contracts/utils/Strings.sol\";\n\n\n\ncontract MyNft is ERC721URIStorage{\n    //address private owner;\n    using Counters for Counters.Counter;\n    Counters.Counter private _tokenIds;\n    bool mutex = false;\n\n    constructor() ERC721(\"CandyNft\", \"CNT\") payable{\n     // owner = payable(msg.sender);\n    }\n    \n    function createToken(string memory uri, address user) public payable returns (uint256){\n      assert(user == msg.sender);\n      require(msg.value > 0 ,\"value must be greater than 0 \");\n      require(user != address(0), \"Empty to adress\");\n      _tokenIds.increment();\n      uint256 newTokenId = _tokenIds.current();\n      _mint(user, newTokenId);\n      _setTokenURI(newTokenId, uri);\n      return newTokenId;\n    }\n\n    function getBalance(address user)private view returns (uint256){\n      uint256 balance = balanceOf(user);\n      return balance;\n    }\n\n    function getTokens()private view returns (uint256){\n      uint256 tokens =_tokenIds.current();\n      return tokens;\n    }\n\n    function getTokenIdsByOwner(address owner) public view returns (uint256[] memory) {\n        uint256 ownerTokenCount = getBalance(owner);\n        uint256 tokenCount = getTokens();\n        uint256[] memory ids = new uint256[](ownerTokenCount);\n        uint256 currentIndex = 0; \n        \n        for (uint256 i = 1; i <= tokenCount; i++) {\n            if (ownerOf(i) == owner) {\n                ids[currentIndex] = i;\n                currentIndex++;\n            }\n        }\n        return ids;\n    }\n\n    function trasferToken(address to, address from , uint256 tokenId) public {\n      require(!mutex);\n      require(ownerOf(tokenId)== from, \"Wrong from address\");\n      require(to != address(0), \"Empty to adress\");\n\n      mutex= true;\n      _transfer(from, to, tokenId);\n      mutex= false;\n    }\n}",
  "sourcePath": "/home/fra/Scrivania/prova/NFT_estractor/contracts/MyNft.sol",
  "compiler": {
    "name": "solc",
    "version": "0.8.17+commit.8df45f5f.Emscripten.clang"
  },
  "schemaVersion": "3.4.11",
  "updatedAt": "2023-02-20T16:58:54.962Z",
  "networkType": "ethereum",
  "devdoc": {
    "kind": "dev",
    "methods": {
      "approve(address,uint256)": {
        "details": "See {IERC721-approve}."
      },
      "balanceOf(address)": {
        "details": "See {IERC721-balanceOf}."
      },
      "getApproved(uint256)": {
        "details": "See {IERC721-getApproved}."
      },
      "isApprovedForAll(address,address)": {
        "details": "See {IERC721-isApprovedForAll}."
      },
      "name()": {
        "details": "See {IERC721Metadata-name}."
      },
      "ownerOf(uint256)": {
        "details": "See {IERC721-ownerOf}."
      },
      "safeTransferFrom(address,address,uint256)": {
        "details": "See {IERC721-safeTransferFrom}."
      },
      "safeTransferFrom(address,address,uint256,bytes)": {
        "details": "See {IERC721-safeTransferFrom}."
      },
      "setApprovalForAll(address,bool)": {
        "details": "See {IERC721-setApprovalForAll}."
      },
      "supportsInterface(bytes4)": {
        "details": "See {IERC165-supportsInterface}."
      },
      "symbol()": {
        "details": "See {IERC721Metadata-symbol}."
      },
      "tokenURI(uint256)": {
        "details": "See {IERC721Metadata-tokenURI}."
      },
      "transferFrom(address,address,uint256)": {
        "details": "See {IERC721-transferFrom}."
      }
    },
    "version": 1
  },
  "userdoc": {
    "kind": "user",
    "methods": {},
    "version": 1
  }
}