{
  "contractName": "MyToken",
  "abi": [
    {
      "inputs": [],
      "stateMutability": "payable",
      "type": "constructor",
      "payable": true
    },
    {
      "anonymous": false,
      "inputs": [
        {
          "indexed": true,
          "internalType": "address",
          "name": "owner",
          "type": "address"
        },
        {
          "indexed": true,
          "internalType": "address",
          "name": "approved",
          "type": "address"
        },
        {
          "indexed": true,
          "internalType": "uint256",
          "name": "tokenId",
          "type": "uint256"
        }
      ],
      "name": "Approval",
      "type": "event"
    },
    {
      "anonymous": false,
      "inputs": [
        {
          "indexed": true,
          "internalType": "address",
          "name": "owner",
          "type": "address"
        },
        {
          "indexed": true,
          "internalType": "address",
          "name": "operator",
          "type": "address"
        },
        {
          "indexed": false,
          "internalType": "bool",
          "name": "approved",
          "type": "bool"
        }
      ],
      "name": "ApprovalForAll",
      "type": "event"
    },
    {
      "anonymous": false,
      "inputs": [
        {
          "indexed": false,
          "internalType": "uint256",
          "name": "",
          "type": "uint256"
        }
      ],
      "name": "NFTMinted",
      "type": "event"
    },
    {
      "anonymous": false,
      "inputs": [
        {
          "indexed": true,
          "internalType": "address",
          "name": "from",
          "type": "address"
        },
        {
          "indexed": true,
          "internalType": "address",
          "name": "to",
          "type": "address"
        },
        {
          "indexed": true,
          "internalType": "uint256",
          "name": "tokenId",
          "type": "uint256"
        }
      ],
      "name": "Transfer",
      "type": "event"
    },
    {
      "inputs": [
        {
          "internalType": "address",
          "name": "to",
          "type": "address"
        },
        {
          "internalType": "uint256",
          "name": "tokenId",
          "type": "uint256"
        }
      ],
      "name": "approve",
      "outputs": [],
      "stateMutability": "nonpayable",
      "type": "function"
    },
    {
      "inputs": [
        {
          "internalType": "address",
          "name": "owner",
          "type": "address"
        }
      ],
      "name": "balanceOf",
      "outputs": [
        {
          "internalType": "uint256",
          "name": "",
          "type": "uint256"
        }
      ],
      "stateMutability": "view",
      "type": "function",
      "constant": true
    },
    {
      "inputs": [
        {
          "internalType": "uint256",
          "name": "tokenId",
          "type": "uint256"
        }
      ],
      "name": "getApproved",
      "outputs": [
        {
          "internalType": "address",
          "name": "",
          "type": "address"
        }
      ],
      "stateMutability": "view",
      "type": "function",
      "constant": true
    },
    {
      "inputs": [
        {
          "internalType": "address",
          "name": "owner",
          "type": "address"
        },
        {
          "internalType": "address",
          "name": "operator",
          "type": "address"
        }
      ],
      "name": "isApprovedForAll",
      "outputs": [
        {
          "internalType": "bool",
          "name": "",
          "type": "bool"
        }
      ],
      "stateMutability": "view",
      "type": "function",
      "constant": true
    },
    {
      "inputs": [],
      "name": "name",
      "outputs": [
        {
          "internalType": "string",
          "name": "",
          "type": "string"
        }
      ],
      "stateMutability": "view",
      "type": "function",
      "constant": true
    },
    {
      "inputs": [],
      "name": "owner",
      "outputs": [
        {
          "internalType": "address",
          "name": "",
          "type": "address"
        }
      ],
      "stateMutability": "view",
      "type": "function",
      "constant": true
    },
    {
      "inputs": [
        {
          "internalType": "uint256",
          "name": "tokenId",
          "type": "uint256"
        }
      ],
      "name": "ownerOf",
      "outputs": [
        {
          "internalType": "address",
          "name": "",
          "type": "address"
        }
      ],
      "stateMutability": "view",
      "type": "function",
      "constant": true
    },
    {
      "inputs": [
        {
          "internalType": "address",
          "name": "from",
          "type": "address"
        },
        {
          "internalType": "address",
          "name": "to",
          "type": "address"
        },
        {
          "internalType": "uint256",
          "name": "tokenId",
          "type": "uint256"
        }
      ],
      "name": "safeTransferFrom",
      "outputs": [],
      "stateMutability": "nonpayable",
      "type": "function"
    },
    {
      "inputs": [
        {
          "internalType": "address",
          "name": "from",
          "type": "address"
        },
        {
          "internalType": "address",
          "name": "to",
          "type": "address"
        },
        {
          "internalType": "uint256",
          "name": "tokenId",
          "type": "uint256"
        },
        {
          "internalType": "bytes",
          "name": "data",
          "type": "bytes"
        }
      ],
      "name": "safeTransferFrom",
      "outputs": [],
      "stateMutability": "nonpayable",
      "type": "function"
    },
    {
      "inputs": [
        {
          "internalType": "address",
          "name": "operator",
          "type": "address"
        },
        {
          "internalType": "bool",
          "name": "approved",
          "type": "bool"
        }
      ],
      "name": "setApprovalForAll",
      "outputs": [],
      "stateMutability": "nonpayable",
      "type": "function"
    },
    {
      "inputs": [
        {
          "internalType": "bytes4",
          "name": "interfaceId",
          "type": "bytes4"
        }
      ],
      "name": "supportsInterface",
      "outputs": [
        {
          "internalType": "bool",
          "name": "",
          "type": "bool"
        }
      ],
      "stateMutability": "view",
      "type": "function",
      "constant": true
    },
    {
      "inputs": [],
      "name": "symbol",
      "outputs": [
        {
          "internalType": "string",
          "name": "",
          "type": "string"
        }
      ],
      "stateMutability": "view",
      "type": "function",
      "constant": true
    },
    {
      "inputs": [
        {
          "internalType": "uint256",
          "name": "tokenId",
          "type": "uint256"
        }
      ],
      "name": "tokenURI",
      "outputs": [
        {
          "internalType": "string",
          "name": "",
          "type": "string"
        }
      ],
      "stateMutability": "view",
      "type": "function",
      "constant": true
    },
    {
      "inputs": [
        {
          "internalType": "uint256",
          "name": "",
          "type": "uint256"
        }
      ],
      "name": "tokens",
      "outputs": [
        {
          "internalType": "string",
          "name": "name",
          "type": "string"
        },
        {
          "internalType": "string",
          "name": "image",
          "type": "string"
        },
        {
          "internalType": "string",
          "name": "value",
          "type": "string"
        },
        {
          "internalType": "string",
          "name": "tipology",
          "type": "string"
        },
        {
          "internalType": "string",
          "name": "rarity",
          "type": "string"
        }
      ],
      "stateMutability": "view",
      "type": "function",
      "constant": true
    },
    {
      "inputs": [
        {
          "internalType": "address",
          "name": "",
          "type": "address"
        },
        {
          "internalType": "uint256",
          "name": "",
          "type": "uint256"
        }
      ],
      "name": "tokensOfOwner",
      "outputs": [
        {
          "internalType": "uint256",
          "name": "",
          "type": "uint256"
        }
      ],
      "stateMutability": "view",
      "type": "function",
      "constant": true
    },
    {
      "inputs": [
        {
          "internalType": "address",
          "name": "from",
          "type": "address"
        },
        {
          "internalType": "address",
          "name": "to",
          "type": "address"
        },
        {
          "internalType": "uint256",
          "name": "tokenId",
          "type": "uint256"
        }
      ],
      "name": "transferFrom",
      "outputs": [],
      "stateMutability": "nonpayable",
      "type": "function"
    },
    {
      "inputs": [
        {
          "internalType": "string",
          "name": "_name",
          "type": "string"
        },
        {
          "internalType": "string",
          "name": "_image",
          "type": "string"
        },
        {
          "internalType": "string",
          "name": "_value",
          "type": "string"
        },
        {
          "internalType": "string",
          "name": "_tipology",
          "type": "string"
        },
        {
          "internalType": "string",
          "name": "_rarity",
          "type": "string"
        }
      ],
      "name": "createToken",
      "outputs": [
        {
          "internalType": "uint256",
          "name": "",
          "type": "uint256"
        }
      ],
      "stateMutability": "payable",
      "type": "function",
      "payable": true
    },
    {
      "inputs": [
        {
          "internalType": "uint256",
          "name": "_tokenId",
          "type": "uint256"
        }
      ],
      "name": "getTokenURI",
      "outputs": [
        {
          "internalType": "string",
          "name": "",
          "type": "string"
        }
      ],
      "stateMutability": "view",
      "type": "function",
      "constant": true
    },
    {
      "inputs": [
        {
          "internalType": "address",
          "name": "user",
          "type": "address"
        },
        {
          "internalType": "string",
          "name": "tokenUri",
          "type": "string"
        }
      ],
      "name": "createNft",
      "outputs": [
        {
          "internalType": "uint256",
          "name": "",
          "type": "uint256"
        }
      ],
      "stateMutability": "nonpayable",
      "type": "function"
    },
    {
      "inputs": [
        {
          "internalType": "uint256",
          "name": "tokenId",
          "type": "uint256"
        }
      ],
      "name": "tokenURI12",
      "outputs": [
        {
          "internalType": "string",
          "name": "",
          "type": "string"
        }
      ],
      "stateMutability": "view",
      "type": "function",
      "constant": true
    }
  ],
  "bytecode": "0x60806040526040518060400160405280600781526020017f4d79546f6b656e000000000000000000000000000000000000000000000000008152506040518060400160405280600381526020017f4d544b0000000000000000000000000000000000000000000000000000000000815250816000908162000081919062000357565b50806001908162000093919062000357565b50505033600860006101000a81548173ffffffffffffffffffffffffffffffffffffffff021916908373ffffffffffffffffffffffffffffffffffffffff1602179055506200043e565b600081519050919050565b7f4e487b7100000000000000000000000000000000000000000000000000000000600052604160045260246000fd5b7f4e487b7100000000000000000000000000000000000000000000000000000000600052602260045260246000fd5b600060028204905060018216806200015f57607f821691505b60208210810362000175576200017462000117565b5b50919050565b60008190508160005260206000209050919050565b60006020601f8301049050919050565b600082821b905092915050565b600060088302620001df7fffffffffffffffffffffffffffffffffffffffffffffffffffffffffffffffff82620001a0565b620001eb8683620001a0565b95508019841693508086168417925050509392505050565b6000819050919050565b6000819050919050565b600062000238620002326200022c8462000203565b6200020d565b62000203565b9050919050565b6000819050919050565b620002548362000217565b6200026c62000263826200023f565b848454620001ad565b825550505050565b600090565b6200028362000274565b6200029081848462000249565b505050565b5b81811015620002b857620002ac60008262000279565b60018101905062000296565b5050565b601f8211156200030757620002d1816200017b565b620002dc8462000190565b81016020851015620002ec578190505b62000304620002fb8562000190565b83018262000295565b50505b505050565b600082821c905092915050565b60006200032c600019846008026200030c565b1980831691505092915050565b600062000347838362000319565b9150826002028217905092915050565b6200036282620000dd565b67ffffffffffffffff8111156200037e576200037d620000e8565b5b6200038a825462000146565b62000397828285620002bc565b600060209050601f831160018114620003cf5760008415620003ba578287015190505b620003c6858262000339565b86555062000436565b601f198416620003df866200017b565b60005b828110156200040957848901518255600182019150602085019450602081019050620003e2565b8683101562000429578489015162000425601f89168262000319565b8355505b6001600288020188555050505b505050505050565b613c71806200044e6000396000f3fe60806040526004361061011f5760003560e01c806368c179d0116100a0578063a3bf944011610064578063a3bf944014610428578063b4ef6d4814610465578063b88d4fde146104a2578063c87b56dd146104cb578063e985e9c5146105085761011f565b806368c179d01461032f57806370a082311461036c5780638da5cb5b146103a957806395d89b41146103d4578063a22cb465146103ff5761011f565b80633bb3a24d116100e75780633bb3a24d1461021b57806342842e0e146102585780634f64b2be14610281578063605aa08c146102c25780636352211e146102f25761011f565b806301ffc9a71461012457806306fdde0314610161578063081812fc1461018c578063095ea7b3146101c957806323b872dd146101f2575b600080fd5b34801561013057600080fd5b5061014b60048036038101906101469190612553565b610545565b604051610158919061259b565b60405180910390f35b34801561016d57600080fd5b50610176610627565b6040516101839190612646565b60405180910390f35b34801561019857600080fd5b506101b360048036038101906101ae919061269e565b6106b9565b6040516101c0919061270c565b60405180910390f35b3480156101d557600080fd5b506101f060048036038101906101eb9190612753565b6106ff565b005b3480156101fe57600080fd5b5061021960048036038101906102149190612793565b610816565b005b34801561022757600080fd5b50610242600480360381019061023d919061269e565b610876565b60405161024f9190612646565b60405180910390f35b34801561026457600080fd5b5061027f600480360381019061027a9190612793565b610929565b005b34801561028d57600080fd5b506102a860048036038101906102a3919061269e565b610949565b6040516102b99594939291906127e6565b60405180910390f35b6102dc60048036038101906102d79190612991565b610c27565b6040516102e99190612aa7565b60405180910390f35b3480156102fe57600080fd5b506103196004803603810190610314919061269e565b610d5c565b604051610326919061270c565b60405180910390f35b34801561033b57600080fd5b5061035660048036038101906103519190612753565b610de2565b6040516103639190612aa7565b60405180910390f35b34801561037857600080fd5b50610393600480360381019061038e9190612ac2565b610e13565b6040516103a09190612aa7565b60405180910390f35b3480156103b557600080fd5b506103be610eca565b6040516103cb919061270c565b60405180910390f35b3480156103e057600080fd5b506103e9610ef0565b6040516103f69190612646565b60405180910390f35b34801561040b57600080fd5b5061042660048036038101906104219190612b1b565b610f82565b005b34801561043457600080fd5b5061044f600480360381019061044a919061269e565b610f98565b60405161045c9190612646565b60405180910390f35b34801561047157600080fd5b5061048c60048036038101906104879190612b5b565b610faa565b6040516104999190612aa7565b60405180910390f35b3480156104ae57600080fd5b506104c960048036038101906104c49190612c58565b61102b565b005b3480156104d757600080fd5b506104f260048036038101906104ed919061269e565b61108d565b6040516104ff9190612646565b60405180910390f35b34801561051457600080fd5b5061052f600480360381019061052a9190612cdb565b61119f565b60405161053c919061259b565b60405180910390f35b60007f80ac58cd000000000000000000000000000000000000000000000000000000007bffffffffffffffffffffffffffffffffffffffffffffffffffffffff1916827bffffffffffffffffffffffffffffffffffffffffffffffffffffffff1916148061061057507f5b5e139f000000000000000000000000000000000000000000000000000000007bffffffffffffffffffffffffffffffffffffffffffffffffffffffff1916827bffffffffffffffffffffffffffffffffffffffffffffffffffffffff1916145b80610620575061061f82611233565b5b9050919050565b60606000805461063690612d4a565b80601f016020809104026020016040519081016040528092919081815260200182805461066290612d4a565b80156106af5780601f10610684576101008083540402835291602001916106af565b820191906000526020600020905b81548152906001019060200180831161069257829003601f168201915b5050505050905090565b60006106c48261129d565b6004600083815260200190815260200160002060009054906101000a900473ffffffffffffffffffffffffffffffffffffffff169050919050565b600061070a82610d5c565b90508073ffffffffffffffffffffffffffffffffffffffff168373ffffffffffffffffffffffffffffffffffffffff160361077a576040517f08c379a000000000000000000000000000000000000000000000000000000000815260040161077190612ded565b60405180910390fd5b8073ffffffffffffffffffffffffffffffffffffffff166107996112e8565b73ffffffffffffffffffffffffffffffffffffffff1614806107c857506107c7816107c26112e8565b61119f565b5b610807576040517f08c379a00000000000000000000000000000000000000000000000000000000081526004016107fe90612e7f565b60405180910390fd5b61081183836112f0565b505050565b6108276108216112e8565b826113a9565b610866576040517f08c379a000000000000000000000000000000000000000000000000000000000815260040161085d90612f11565b60405180910390fd5b61087183838361143e565b505050565b60606000600960008481526020019081526020016000209050600081600001826001018360020184600301856004016040516020016108b9959493929190612fd4565b604051602081830303815290604052905060006108d585611737565b905060006108e230611805565b826108ec85611832565b6040516020016108fe939291906130e8565b6040516020818303038152906040529050600061091a82611832565b90508095505050505050919050565b6109448383836040518060200160405280600081525061102b565b505050565b600960205280600052604060002060009150905080600001805461096c90612d4a565b80601f016020809104026020016040519081016040528092919081815260200182805461099890612d4a565b80156109e55780601f106109ba576101008083540402835291602001916109e5565b820191906000526020600020905b8154815290600101906020018083116109c857829003601f168201915b5050505050908060010180546109fa90612d4a565b80601f0160208091040260200160405190810160405280929190818152602001828054610a2690612d4a565b8015610a735780601f10610a4857610100808354040283529160200191610a73565b820191906000526020600020905b815481529060010190602001808311610a5657829003601f168201915b505050505090806002018054610a8890612d4a565b80601f0160208091040260200160405190810160405280929190818152602001828054610ab490612d4a565b8015610b015780601f10610ad657610100808354040283529160200191610b01565b820191906000526020600020905b815481529060010190602001808311610ae457829003601f168201915b505050505090806003018054610b1690612d4a565b80601f0160208091040260200160405190810160405280929190818152602001828054610b4290612d4a565b8015610b8f5780601f10610b6457610100808354040283529160200191610b8f565b820191906000526020600020905b815481529060010190602001808311610b7257829003601f168201915b505050505090806004018054610ba490612d4a565b80601f0160208091040260200160405190810160405280929190818152602001828054610bd090612d4a565b8015610c1d5780601f10610bf257610100808354040283529160200191610c1d565b820191906000526020600020905b815481529060010190602001808311610c0057829003601f168201915b5050505050905085565b600080341015610c6c576040517f08c379a0000000000000000000000000000000000000000000000000000000008152600401610c639061317b565b60405180910390fd5b610c76600761190f565b6040518060a001604052808781526020018681526020018581526020018481526020018381525060096000610cab6007611925565b81526020019081526020016000206000820151816000019081610cce9190613332565b506020820151816001019081610ce49190613332565b506040820151816002019081610cfa9190613332565b506060820151816003019081610d109190613332565b506080820151816004019081610d269190613332565b509050506000610d3e610d396007611925565b610876565b90506000610d4c3383610faa565b9050809250505095945050505050565b600080610d6883611933565b9050600073ffffffffffffffffffffffffffffffffffffffff168173ffffffffffffffffffffffffffffffffffffffff1603610dd9576040517f08c379a0000000000000000000000000000000000000000000000000000000008152600401610dd090613450565b60405180910390fd5b80915050919050565b600a6020528160005260406000208181548110610dfe57600080fd5b90600052602060002001600091509150505481565b60008073ffffffffffffffffffffffffffffffffffffffff168273ffffffffffffffffffffffffffffffffffffffff1603610e83576040517f08c379a0000000000000000000000000000000000000000000000000000000008152600401610e7a906134e2565b60405180910390fd5b600360008373ffffffffffffffffffffffffffffffffffffffff1673ffffffffffffffffffffffffffffffffffffffff168152602001908152602001600020549050919050565b600860009054906101000a900473ffffffffffffffffffffffffffffffffffffffff1681565b606060018054610eff90612d4a565b80601f0160208091040260200160405190810160405280929190818152602001828054610f2b90612d4a565b8015610f785780601f10610f4d57610100808354040283529160200191610f78565b820191906000526020600020905b815481529060010190602001808311610f5b57829003601f168201915b5050505050905090565b610f94610f8d6112e8565b8383611970565b5050565b6060610fa38261108d565b9050919050565b600080610fb76007611925565b9050610fc38482611adc565b610fcd8184611cf9565b610fd733826113a9565b611016576040517f08c379a000000000000000000000000000000000000000000000000000000000815260040161100d90613574565b60405180910390fd5b611021338583610929565b8091505092915050565b61103c6110366112e8565b836113a9565b61107b576040517f08c379a000000000000000000000000000000000000000000000000000000000815260040161107290612f11565b60405180910390fd5b61108784848484611d66565b50505050565b60606110988261129d565b60006006600084815260200190815260200160002080546110b890612d4a565b80601f01602080910402602001604051908101604052809291908181526020018280546110e490612d4a565b80156111315780601f1061110657610100808354040283529160200191611131565b820191906000526020600020905b81548152906001019060200180831161111457829003601f168201915b505050505090506000611142611dc2565b9050600081510361115757819250505061119a565b60008251111561118c578082604051602001611174929190613594565b6040516020818303038152906040529250505061119a565b61119584611dd9565b925050505b919050565b6000600560008473ffffffffffffffffffffffffffffffffffffffff1673ffffffffffffffffffffffffffffffffffffffff16815260200190815260200160002060008373ffffffffffffffffffffffffffffffffffffffff1673ffffffffffffffffffffffffffffffffffffffff16815260200190815260200160002060009054906101000a900460ff16905092915050565b60007f01ffc9a7000000000000000000000000000000000000000000000000000000007bffffffffffffffffffffffffffffffffffffffffffffffffffffffff1916827bffffffffffffffffffffffffffffffffffffffffffffffffffffffff1916149050919050565b6112a681611e41565b6112e5576040517f08c379a00000000000000000000000000000000000000000000000000000000081526004016112dc90613450565b60405180910390fd5b50565b600033905090565b816004600083815260200190815260200160002060006101000a81548173ffffffffffffffffffffffffffffffffffffffff021916908373ffffffffffffffffffffffffffffffffffffffff160217905550808273ffffffffffffffffffffffffffffffffffffffff1661136383610d5c565b73ffffffffffffffffffffffffffffffffffffffff167f8c5be1e5ebec7d5bd14f71427d1e84f3dd0314c0f7b2291e5b200ac8c7c3b92560405160405180910390a45050565b6000806113b583610d5c565b90508073ffffffffffffffffffffffffffffffffffffffff168473ffffffffffffffffffffffffffffffffffffffff1614806113f757506113f6818561119f565b5b8061143557508373ffffffffffffffffffffffffffffffffffffffff1661141d846106b9565b73ffffffffffffffffffffffffffffffffffffffff16145b91505092915050565b8273ffffffffffffffffffffffffffffffffffffffff1661145e82610d5c565b73ffffffffffffffffffffffffffffffffffffffff16146114b4576040517f08c379a00000000000000000000000000000000000000000000000000000000081526004016114ab9061362a565b60405180910390fd5b600073ffffffffffffffffffffffffffffffffffffffff168273ffffffffffffffffffffffffffffffffffffffff1603611523576040517f08c379a000000000000000000000000000000000000000000000000000000000815260040161151a906136bc565b60405180910390fd5b6115308383836001611e82565b8273ffffffffffffffffffffffffffffffffffffffff1661155082610d5c565b73ffffffffffffffffffffffffffffffffffffffff16146115a6576040517f08c379a000000000000000000000000000000000000000000000000000000000815260040161159d9061362a565b60405180910390fd5b6004600082815260200190815260200160002060006101000a81549073ffffffffffffffffffffffffffffffffffffffff02191690556001600360008573ffffffffffffffffffffffffffffffffffffffff1673ffffffffffffffffffffffffffffffffffffffff168152602001908152602001600020600082825403925050819055506001600360008473ffffffffffffffffffffffffffffffffffffffff1673ffffffffffffffffffffffffffffffffffffffff16815260200190815260200160002060008282540192505081905550816002600083815260200190815260200160002060006101000a81548173ffffffffffffffffffffffffffffffffffffffff021916908373ffffffffffffffffffffffffffffffffffffffff160217905550808273ffffffffffffffffffffffffffffffffffffffff168473ffffffffffffffffffffffffffffffffffffffff167fddf252ad1be2c89b69c2b068fc378daa952ba7f163c4a11628f55a4df523b3ef60405160405180910390a46117328383836001611fa8565b505050565b60606000600161174684611fae565b01905060008167ffffffffffffffff81111561176557611764612866565b5b6040519080825280601f01601f1916602001820160405280156117975781602001600182028036833780820191505090505b509050600082602001820190505b6001156117fa578080600190039150507f3031323334353637383961626364656600000000000000000000000000000000600a86061a8153600a85816117ee576117ed6136dc565b5b049450600085036117a5575b819350505050919050565b606061182b8273ffffffffffffffffffffffffffffffffffffffff16601460ff16612101565b9050919050565b60606000825167ffffffffffffffff81111561185157611850612866565b5b6040519080825280601f01601f1916602001820160405280156118835781602001600182028036833780820191505090505b50905060005b8351811015611905578381815181106118a5576118a461370b565b5b602001015160f81c60f81b8282815181106118c3576118c261370b565b5b60200101907effffffffffffffffffffffffffffffffffffffffffffffffffffffffffffff1916908160001a90535080806118fd90613769565b915050611889565b5080915050919050565b6001816000016000828254019250508190555050565b600081600001549050919050565b60006002600083815260200190815260200160002060009054906101000a900473ffffffffffffffffffffffffffffffffffffffff169050919050565b8173ffffffffffffffffffffffffffffffffffffffff168373ffffffffffffffffffffffffffffffffffffffff16036119de576040517f08c379a00000000000000000000000000000000000000000000000000000000081526004016119d5906137fd565b60405180910390fd5b80600560008573ffffffffffffffffffffffffffffffffffffffff1673ffffffffffffffffffffffffffffffffffffffff16815260200190815260200160002060008473ffffffffffffffffffffffffffffffffffffffff1673ffffffffffffffffffffffffffffffffffffffff16815260200190815260200160002060006101000a81548160ff0219169083151502179055508173ffffffffffffffffffffffffffffffffffffffff168373ffffffffffffffffffffffffffffffffffffffff167f17307eab39ab6107e8899845ad3d59bd9653f200f220920489ca2b5937696c3183604051611acf919061259b565b60405180910390a3505050565b600073ffffffffffffffffffffffffffffffffffffffff168273ffffffffffffffffffffffffffffffffffffffff1603611b4b576040517f08c379a0000000000000000000000000000000000000000000000000000000008152600401611b4290613869565b60405180910390fd5b611b5481611e41565b15611b94576040517f08c379a0000000000000000000000000000000000000000000000000000000008152600401611b8b906138d5565b60405180910390fd5b611ba2600083836001611e82565b611bab81611e41565b15611beb576040517f08c379a0000000000000000000000000000000000000000000000000000000008152600401611be2906138d5565b60405180910390fd5b6001600360008473ffffffffffffffffffffffffffffffffffffffff1673ffffffffffffffffffffffffffffffffffffffff16815260200190815260200160002060008282540192505081905550816002600083815260200190815260200160002060006101000a81548173ffffffffffffffffffffffffffffffffffffffff021916908373ffffffffffffffffffffffffffffffffffffffff160217905550808273ffffffffffffffffffffffffffffffffffffffff16600073ffffffffffffffffffffffffffffffffffffffff167fddf252ad1be2c89b69c2b068fc378daa952ba7f163c4a11628f55a4df523b3ef60405160405180910390a4611cf5600083836001611fa8565b5050565b611d0282611e41565b611d41576040517f08c379a0000000000000000000000000000000000000000000000000000000008152600401611d3890613967565b60405180910390fd5b80600660008481526020019081526020016000209081611d619190613332565b505050565b611d7184848461143e565b611d7d8484848461233d565b611dbc576040517f08c379a0000000000000000000000000000000000000000000000000000000008152600401611db3906139f9565b60405180910390fd5b50505050565b606060405180602001604052806000815250905090565b6060611de48261129d565b6000611dee611dc2565b90506000815111611e0e5760405180602001604052806000815250611e39565b80611e1884611737565b604051602001611e29929190613594565b6040516020818303038152906040525b915050919050565b60008073ffffffffffffffffffffffffffffffffffffffff16611e6383611933565b73ffffffffffffffffffffffffffffffffffffffff1614159050919050565b6001811115611fa257600073ffffffffffffffffffffffffffffffffffffffff168473ffffffffffffffffffffffffffffffffffffffff1614611f165780600360008673ffffffffffffffffffffffffffffffffffffffff1673ffffffffffffffffffffffffffffffffffffffff1681526020019081526020016000206000828254611f0e9190613a19565b925050819055505b600073ffffffffffffffffffffffffffffffffffffffff168373ffffffffffffffffffffffffffffffffffffffff1614611fa15780600360008573ffffffffffffffffffffffffffffffffffffffff1673ffffffffffffffffffffffffffffffffffffffff1681526020019081526020016000206000828254611f999190613a4d565b925050819055505b5b50505050565b50505050565b600080600090507a184f03e93ff9f4daa797ed6e38ed64bf6a1f010000000000000000831061200c577a184f03e93ff9f4daa797ed6e38ed64bf6a1f0100000000000000008381612002576120016136dc565b5b0492506040810190505b6d04ee2d6d415b85acef81000000008310612049576d04ee2d6d415b85acef8100000000838161203f5761203e6136dc565b5b0492506020810190505b662386f26fc10000831061207857662386f26fc10000838161206e5761206d6136dc565b5b0492506010810190505b6305f5e10083106120a1576305f5e1008381612097576120966136dc565b5b0492506008810190505b61271083106120c65761271083816120bc576120bb6136dc565b5b0492506004810190505b606483106120e957606483816120df576120de6136dc565b5b0492506002810190505b600a83106120f8576001810190505b80915050919050565b6060600060028360026121149190613a81565b61211e9190613a4d565b67ffffffffffffffff81111561213757612136612866565b5b6040519080825280601f01601f1916602001820160405280156121695781602001600182028036833780820191505090505b5090507f3000000000000000000000000000000000000000000000000000000000000000816000815181106121a1576121a061370b565b5b60200101907effffffffffffffffffffffffffffffffffffffffffffffffffffffffffffff1916908160001a9053507f7800000000000000000000000000000000000000000000000000000000000000816001815181106122055761220461370b565b5b60200101907effffffffffffffffffffffffffffffffffffffffffffffffffffffffffffff1916908160001a905350600060018460026122459190613a81565b61224f9190613a4d565b90505b60018111156122ef577f3031323334353637383961626364656600000000000000000000000000000000600f8616601081106122915761229061370b565b5b1a60f81b8282815181106122a8576122a761370b565b5b60200101907effffffffffffffffffffffffffffffffffffffffffffffffffffffffffffff1916908160001a905350600485901c9450806122e890613ac3565b9050612252565b5060008414612333576040517f08c379a000000000000000000000000000000000000000000000000000000000815260040161232a90613b38565b60405180910390fd5b8091505092915050565b600061235e8473ffffffffffffffffffffffffffffffffffffffff166124c4565b156124b7578373ffffffffffffffffffffffffffffffffffffffff1663150b7a026123876112e8565b8786866040518563ffffffff1660e01b81526004016123a99493929190613bad565b6020604051808303816000875af19250505080156123e557506040513d601f19601f820116820180604052508101906123e29190613c0e565b60015b612467573d8060008114612415576040519150601f19603f3d011682016040523d82523d6000602084013e61241a565b606091505b50600081510361245f576040517f08c379a0000000000000000000000000000000000000000000000000000000008152600401612456906139f9565b60405180910390fd5b805181602001fd5b63150b7a0260e01b7bffffffffffffffffffffffffffffffffffffffffffffffffffffffff1916817bffffffffffffffffffffffffffffffffffffffffffffffffffffffff1916149150506124bc565b600190505b949350505050565b6000808273ffffffffffffffffffffffffffffffffffffffff163b119050919050565b6000604051905090565b600080fd5b600080fd5b60007fffffffff0000000000000000000000000000000000000000000000000000000082169050919050565b612530816124fb565b811461253b57600080fd5b50565b60008135905061254d81612527565b92915050565b600060208284031215612569576125686124f1565b5b60006125778482850161253e565b91505092915050565b60008115159050919050565b61259581612580565b82525050565b60006020820190506125b0600083018461258c565b92915050565b600081519050919050565b600082825260208201905092915050565b60005b838110156125f05780820151818401526020810190506125d5565b60008484015250505050565b6000601f19601f8301169050919050565b6000612618826125b6565b61262281856125c1565b93506126328185602086016125d2565b61263b816125fc565b840191505092915050565b60006020820190508181036000830152612660818461260d565b905092915050565b6000819050919050565b61267b81612668565b811461268657600080fd5b50565b60008135905061269881612672565b92915050565b6000602082840312156126b4576126b36124f1565b5b60006126c284828501612689565b91505092915050565b600073ffffffffffffffffffffffffffffffffffffffff82169050919050565b60006126f6826126cb565b9050919050565b612706816126eb565b82525050565b600060208201905061272160008301846126fd565b92915050565b612730816126eb565b811461273b57600080fd5b50565b60008135905061274d81612727565b92915050565b6000806040838503121561276a576127696124f1565b5b60006127788582860161273e565b925050602061278985828601612689565b9150509250929050565b6000806000606084860312156127ac576127ab6124f1565b5b60006127ba8682870161273e565b93505060206127cb8682870161273e565b92505060406127dc86828701612689565b9150509250925092565b600060a0820190508181036000830152612800818861260d565b90508181036020830152612814818761260d565b90508181036040830152612828818661260d565b9050818103606083015261283c818561260d565b90508181036080830152612850818461260d565b90509695505050505050565b600080fd5b600080fd5b7f4e487b7100000000000000000000000000000000000000000000000000000000600052604160045260246000fd5b61289e826125fc565b810181811067ffffffffffffffff821117156128bd576128bc612866565b5b80604052505050565b60006128d06124e7565b90506128dc8282612895565b919050565b600067ffffffffffffffff8211156128fc576128fb612866565b5b612905826125fc565b9050602081019050919050565b82818337600083830152505050565b600061293461292f846128e1565b6128c6565b9050828152602081018484840111156129505761294f612861565b5b61295b848285612912565b509392505050565b600082601f8301126129785761297761285c565b5b8135612988848260208601612921565b91505092915050565b600080600080600060a086880312156129ad576129ac6124f1565b5b600086013567ffffffffffffffff8111156129cb576129ca6124f6565b5b6129d788828901612963565b955050602086013567ffffffffffffffff8111156129f8576129f76124f6565b5b612a0488828901612963565b945050604086013567ffffffffffffffff811115612a2557612a246124f6565b5b612a3188828901612963565b935050606086013567ffffffffffffffff811115612a5257612a516124f6565b5b612a5e88828901612963565b925050608086013567ffffffffffffffff811115612a7f57612a7e6124f6565b5b612a8b88828901612963565b9150509295509295909350565b612aa181612668565b82525050565b6000602082019050612abc6000830184612a98565b92915050565b600060208284031215612ad857612ad76124f1565b5b6000612ae68482850161273e565b91505092915050565b612af881612580565b8114612b0357600080fd5b50565b600081359050612b1581612aef565b92915050565b60008060408385031215612b3257612b316124f1565b5b6000612b408582860161273e565b9250506020612b5185828601612b06565b9150509250929050565b60008060408385031215612b7257612b716124f1565b5b6000612b808582860161273e565b925050602083013567ffffffffffffffff811115612ba157612ba06124f6565b5b612bad85828601612963565b9150509250929050565b600067ffffffffffffffff821115612bd257612bd1612866565b5b612bdb826125fc565b9050602081019050919050565b6000612bfb612bf684612bb7565b6128c6565b905082815260208101848484011115612c1757612c16612861565b5b612c22848285612912565b509392505050565b600082601f830112612c3f57612c3e61285c565b5b8135612c4f848260208601612be8565b91505092915050565b60008060008060808587031215612c7257612c716124f1565b5b6000612c808782880161273e565b9450506020612c918782880161273e565b9350506040612ca287828801612689565b925050606085013567ffffffffffffffff811115612cc357612cc26124f6565b5b612ccf87828801612c2a565b91505092959194509250565b60008060408385031215612cf257612cf16124f1565b5b6000612d008582860161273e565b9250506020612d118582860161273e565b9150509250929050565b7f4e487b7100000000000000000000000000000000000000000000000000000000600052602260045260246000fd5b60006002820490506001821680612d6257607f821691505b602082108103612d7557612d74612d1b565b5b50919050565b7f4552433732313a20617070726f76616c20746f2063757272656e74206f776e6560008201527f7200000000000000000000000000000000000000000000000000000000000000602082015250565b6000612dd76021836125c1565b9150612de282612d7b565b604082019050919050565b60006020820190508181036000830152612e0681612dca565b9050919050565b7f4552433732313a20617070726f76652063616c6c6572206973206e6f7420746f60008201527f6b656e206f776e6572206f7220617070726f76656420666f7220616c6c000000602082015250565b6000612e69603d836125c1565b9150612e7482612e0d565b604082019050919050565b60006020820190508181036000830152612e9881612e5c565b9050919050565b7f4552433732313a2063616c6c6572206973206e6f7420746f6b656e206f776e6560008201527f72206f7220617070726f76656400000000000000000000000000000000000000602082015250565b6000612efb602d836125c1565b9150612f0682612e9f565b604082019050919050565b60006020820190508181036000830152612f2a81612eee565b9050919050565b600081905092915050565b60008190508160005260206000209050919050565b60008154612f5e81612d4a565b612f688186612f31565b94506001821660008114612f835760018114612f9857612fcb565b60ff1983168652811515820286019350612fcb565b612fa185612f3c565b60005b83811015612fc357815481890152600182019150602081019050612fa4565b838801955050505b50505092915050565b6000612fe08288612f51565b9150612fec8287612f51565b9150612ff88286612f51565b91506130048285612f51565b91506130108284612f51565b91508190509695505050505050565b600061302a826125b6565b6130348185612f31565b93506130448185602086016125d2565b80840191505092915050565b7f2f746f6b656e2f00000000000000000000000000000000000000000000000000600082015250565b6000613086600783612f31565b915061309182613050565b600782019050919050565b7f2f00000000000000000000000000000000000000000000000000000000000000600082015250565b60006130d2600183612f31565b91506130dd8261309c565b600182019050919050565b60006130f4828661301f565b91506130ff82613079565b915061310b828561301f565b9150613116826130c5565b9150613122828461301f565b9150819050949350505050565b7f76616c7565206d757374206265203e3d20300000000000000000000000000000600082015250565b60006131656012836125c1565b91506131708261312f565b602082019050919050565b6000602082019050818103600083015261319481613158565b9050919050565b60006020601f8301049050919050565b600082821b905092915050565b6000600883026131e87fffffffffffffffffffffffffffffffffffffffffffffffffffffffffffffffff826131ab565b6131f286836131ab565b95508019841693508086168417925050509392505050565b6000819050919050565b600061322f61322a61322584612668565b61320a565b612668565b9050919050565b6000819050919050565b61324983613214565b61325d61325582613236565b8484546131b8565b825550505050565b600090565b613272613265565b61327d818484613240565b505050565b5b818110156132a15761329660008261326a565b600181019050613283565b5050565b601f8211156132e6576132b781612f3c565b6132c08461319b565b810160208510156132cf578190505b6132e36132db8561319b565b830182613282565b50505b505050565b600082821c905092915050565b6000613309600019846008026132eb565b1980831691505092915050565b600061332283836132f8565b9150826002028217905092915050565b61333b826125b6565b67ffffffffffffffff81111561335457613353612866565b5b61335e8254612d4a565b6133698282856132a5565b600060209050601f83116001811461339c576000841561338a578287015190505b6133948582613316565b8655506133fc565b601f1984166133aa86612f3c565b60005b828110156133d2578489015182556001820191506020850194506020810190506133ad565b868310156133ef57848901516133eb601f8916826132f8565b8355505b6001600288020188555050505b505050505050565b7f4552433732313a20696e76616c696420746f6b656e2049440000000000000000600082015250565b600061343a6018836125c1565b915061344582613404565b602082019050919050565b600060208201905081810360008301526134698161342d565b9050919050565b7f4552433732313a2061646472657373207a65726f206973206e6f74206120766160008201527f6c6964206f776e65720000000000000000000000000000000000000000000000602082015250565b60006134cc6029836125c1565b91506134d782613470565b604082019050919050565b600060208201905081810360008301526134fb816134bf565b9050919050565b7f496c20746f6b656e206e6f6e2061707061727469656e6520616c206d6974746560008201527f6e74650000000000000000000000000000000000000000000000000000000000602082015250565b600061355e6023836125c1565b915061356982613502565b604082019050919050565b6000602082019050818103600083015261358d81613551565b9050919050565b60006135a0828561301f565b91506135ac828461301f565b91508190509392505050565b7f4552433732313a207472616e736665722066726f6d20696e636f72726563742060008201527f6f776e6572000000000000000000000000000000000000000000000000000000602082015250565b60006136146025836125c1565b915061361f826135b8565b604082019050919050565b6000602082019050818103600083015261364381613607565b9050919050565b7f4552433732313a207472616e7366657220746f20746865207a65726f2061646460008201527f7265737300000000000000000000000000000000000000000000000000000000602082015250565b60006136a66024836125c1565b91506136b18261364a565b604082019050919050565b600060208201905081810360008301526136d581613699565b9050919050565b7f4e487b7100000000000000000000000000000000000000000000000000000000600052601260045260246000fd5b7f4e487b7100000000000000000000000000000000000000000000000000000000600052603260045260246000fd5b7f4e487b7100000000000000000000000000000000000000000000000000000000600052601160045260246000fd5b600061377482612668565b91507fffffffffffffffffffffffffffffffffffffffffffffffffffffffffffffffff82036137a6576137a561373a565b5b600182019050919050565b7f4552433732313a20617070726f766520746f2063616c6c657200000000000000600082015250565b60006137e76019836125c1565b91506137f2826137b1565b602082019050919050565b60006020820190508181036000830152613816816137da565b9050919050565b7f4552433732313a206d696e7420746f20746865207a65726f2061646472657373600082015250565b60006138536020836125c1565b915061385e8261381d565b602082019050919050565b6000602082019050818103600083015261388281613846565b9050919050565b7f4552433732313a20746f6b656e20616c7265616479206d696e74656400000000600082015250565b60006138bf601c836125c1565b91506138ca82613889565b602082019050919050565b600060208201905081810360008301526138ee816138b2565b9050919050565b7f45524337323155524953746f726167653a2055524920736574206f66206e6f6e60008201527f6578697374656e7420746f6b656e000000000000000000000000000000000000602082015250565b6000613951602e836125c1565b915061395c826138f5565b604082019050919050565b6000602082019050818103600083015261398081613944565b9050919050565b7f4552433732313a207472616e7366657220746f206e6f6e20455243373231526560008201527f63656976657220696d706c656d656e7465720000000000000000000000000000602082015250565b60006139e36032836125c1565b91506139ee82613987565b604082019050919050565b60006020820190508181036000830152613a12816139d6565b9050919050565b6000613a2482612668565b9150613a2f83612668565b9250828203905081811115613a4757613a4661373a565b5b92915050565b6000613a5882612668565b9150613a6383612668565b9250828201905080821115613a7b57613a7a61373a565b5b92915050565b6000613a8c82612668565b9150613a9783612668565b9250828202613aa581612668565b91508282048414831517613abc57613abb61373a565b5b5092915050565b6000613ace82612668565b915060008203613ae157613ae061373a565b5b600182039050919050565b7f537472696e67733a20686578206c656e67746820696e73756666696369656e74600082015250565b6000613b226020836125c1565b9150613b2d82613aec565b602082019050919050565b60006020820190508181036000830152613b5181613b15565b9050919050565b600081519050919050565b600082825260208201905092915050565b6000613b7f82613b58565b613b898185613b63565b9350613b998185602086016125d2565b613ba2816125fc565b840191505092915050565b6000608082019050613bc260008301876126fd565b613bcf60208301866126fd565b613bdc6040830185612a98565b8181036060830152613bee8184613b74565b905095945050505050565b600081519050613c0881612527565b92915050565b600060208284031215613c2457613c236124f1565b5b6000613c3284828501613bf9565b9150509291505056fea2646970667358221220107e9381d2e0a739503e73037cf0eeefeae465b25d7e4af15fb7927616b778e164736f6c63430008110033",
  "immutableReferences": {},
  "source": "// SPDX-License-Identifier: MIT\npragma solidity ^0.8.17;\n\nimport \"@openzeppelin/contracts/utils/Counters.sol\";\nimport \"@openzeppelin/contracts/token/ERC721/extensions/ERC721URIStorage.sol\";\nimport \"@openzeppelin/contracts/utils/Strings.sol\";\n\n\ncontract MyToken is ERC721URIStorage{\n    using Counters for Counters.Counter;\n    Counters.Counter private _tokenIds;\n    address public owner;\n    mapping (uint256 => Token) public tokens;\n    event NFTMinted(uint256);\n    mapping (address => uint[]) public tokensOfOwner;\n\n    struct Token {\n        string name;\n        string image;\n        string value;\n        string tipology;\n        string rarity;\n    }\n    \n    constructor() ERC721(\"MyToken\", \"MTK\") payable{\n        owner = payable(msg.sender);\n     }\n\n    function createToken(string memory _name, string memory _image, string memory _value, string memory _tipology, string memory _rarity) public payable returns (uint256){\n        require(msg.value >= 0,\"value must be >= 0\");\n        //require(msg.sender == owner,\"falses\");\n        _tokenIds.increment(); //genera id\n        tokens[_tokenIds.current()] = Token(_name, _image, _value,_tipology,_rarity);\n        string memory tokenUri = getTokenURI(_tokenIds.current());\n        uint256 newTokenId = createNft(msg.sender, tokenUri);\n        return newTokenId;\n    }\n\n    function getTokenURI(uint256 _tokenId) public view returns (string memory) {\n        Token storage token = tokens[_tokenId];\n        bytes memory tokenInfo = abi.encodePacked(token.name, token.image, token.value,token.tipology,token.rarity);\n        string memory tokeID = Strings.toString(_tokenId);\n        bytes memory encoded = abi.encodePacked(Strings.toHexString(address(this)), \"/token/\",tokeID , \"/\" ,bytesToString(tokenInfo));\n        string memory tokenUri = bytesToString(encoded);\n        return tokenUri;\n    }\n\n    function bytesToString(bytes memory _b) internal pure returns (string memory) {\n        bytes memory dynamicBytes = new bytes(_b.length);\n        for (uint256 i = 0; i < _b.length; i++) {\n            dynamicBytes[i] = _b[i];\n        }\n        \n        return string(dynamicBytes);\n    }\n\n\n    function createNft(address user, string memory tokenUri) public returns (uint256){\n        //_tokenIds.increment(); //genera id\n        uint256 newItemId = _tokenIds.current();\n        _mint(user,newItemId);\n        _setTokenURI(newItemId,tokenUri);\n        require(_isApprovedOrOwner(msg.sender, newItemId), \"Il token non appartiene al mittente\");\n        safeTransferFrom(msg.sender, user, newItemId);\n        return newItemId;\n    }\n\n    function tokenURI12(uint256 tokenId) public view returns (string memory) {\n        // restituisce l'URL delle informazioni del token\n        return tokenURI(tokenId);\n        \n    }\n\n    //event Transfer(address from, address to, uint256 tokenId);\n\n    \n}\n",
  "sourcePath": "/home/fra/Scrivania/prova/NFT_estractor/contracts/MyToken.sol",
  "compiler": {
    "name": "solc",
    "version": "0.8.17+commit.8df45f5f.Emscripten.clang"
  },
  "schemaVersion": "3.4.11",
  "updatedAt": "2023-02-04T14:05:30.278Z",
  "networkType": "ethereum",
  "devdoc": {
    "kind": "dev",
    "methods": {
      "approve(address,uint256)": {
        "details": "See {IERC721-approve}."
      },
      "balanceOf(address)": {
        "details": "See {IERC721-balanceOf}."
      },
      "getApproved(uint256)": {
        "details": "See {IERC721-getApproved}."
      },
      "isApprovedForAll(address,address)": {
        "details": "See {IERC721-isApprovedForAll}."
      },
      "name()": {
        "details": "See {IERC721Metadata-name}."
      },
      "ownerOf(uint256)": {
        "details": "See {IERC721-ownerOf}."
      },
      "safeTransferFrom(address,address,uint256)": {
        "details": "See {IERC721-safeTransferFrom}."
      },
      "safeTransferFrom(address,address,uint256,bytes)": {
        "details": "See {IERC721-safeTransferFrom}."
      },
      "setApprovalForAll(address,bool)": {
        "details": "See {IERC721-setApprovalForAll}."
      },
      "supportsInterface(bytes4)": {
        "details": "See {IERC165-supportsInterface}."
      },
      "symbol()": {
        "details": "See {IERC721Metadata-symbol}."
      },
      "tokenURI(uint256)": {
        "details": "See {IERC721Metadata-tokenURI}."
      },
      "transferFrom(address,address,uint256)": {
        "details": "See {IERC721-transferFrom}."
      }
    },
    "version": 1
  },
  "userdoc": {
    "kind": "user",
    "methods": {},
    "version": 1
  }
}